:020000040800F2
:10000000480500209D010008AB190008E917000809
:10001000A9190008C5020008152100080000000009
:10002000000000000000000000000000AF19000800
:100030008903000800000000AD190008B11900088C
:10004000B7010008B7010008B7010008B7010008B0
:10005000B7010008B7010008B7010008B7010008A0
:10006000B7010008B7010008B7010008B701000890
:10007000B7010008B7010008B7010008B701000880
:10008000B7010008B7010008B7010008B701000870
:10009000C9020008B7010008B7010008B70100084D
:1000A000B7010008B7010008B7010008B701000850
:1000B0008D1A0008B7010008A91A0008B701000846
:1000C000B7010008B7010008B7010008B701000830
:1000D000B7010008B70100088D200008B70100082B
:1000E000B7010008B7010008B7010008B701000810
:1000F000B7010008B7010008B7010008B701000800
:10010000B7010008B7010008B7010008B7010008EF
:10011000B7010008B7010008B7010008B7010008DF
:10012000B7010008B7010008B7010008B7010008CF
:10013000B7010008B7010008B7010008B7010008BF
:10014000B7010008B7010008B7010008B7010008AF
:10015000B7010008B7010008B7010008B70100089F
:10016000B7010008B7010008B7010008B70100088F
:10017000B7010008B7010008B7010008000000003F
:10018000B7010008B7010008DFF80CD000F088F8CC
:10019000004800478D210008480500200648804798
:1001A00006480047FEE7FEE7FEE7FEE7FEE7FEE75C
:1001B000FEE7FEE7FEE7FEE7391A000889010008BE
:1001C0002DE9F05F0546002092469B46884606468C
:1001D000814640241BE0284641464746224600F01F
:1001E0004FF853465A46C01A914110D3114618464B
:1001F000224600F036F82D1A67EB01084F462246DA
:100200000120002100F02DF817EB00094E41201EBF
:10021000A4F10104DFDC484631462A464346BDE8E6
:10022000F09FD2B201E000F8012B491EFBD27047CB
:100230000022F6E710B513460A4604461946FFF7B2
:10024000F0FF204610BD10B5002200E0521C835C78
:100250008C5CA34201D1002BF8D1D8B2E1B2401A94
:1002600010BD202A04DB203A00FA02F1002070477A
:100270009140C2F1200320FA03F3194390407047E4
:10028000202A04DB203A21FA02F00021704721FAEB
:1002900002F3D040C2F12002914008431946704752
:1002A000064C074D06E0E06840F0010394E80700C3
:1002B00098471034AC42F6D3FFF76AFF20240008B9
:1002C00040240008FEE70000014800F074B9000077
:1002D0004C00002000B58BB000200121CDE90601C3
:1002E0000390059000900190029008910490694657
:1002F000024800F0D9F80BB000BD00004C0000200F
:100300000160416000218160C1600421016101211F
:100310000175704716489FED171A194A018848F26F
:10032000D040484300EE100A1348F8EEC00A80EEB1
:10033000810A00EE901A9FED111AF8EE600AC0EEE5
:10034000811A10EE101A80ED040A9142C0ED051AD0
:1003500003DB9FED0C0A80ED040A10EE101AB1F1D8
:10036000804F03DCB0EE000A80ED040A7047000005
:100370002200002000504348000000200000C84236
:100380000000C8430000C8437047704704484178E4
:100390000A2903D3002141700120704700207047D3
:1003A0001E00002004480178022903D300210170B7
:1003B00001207047002070471E00002090F8202088
:1003C000012A07D0022A05D0416A41F48021416206
:1003D00001207047006842690A434261002070476B
:1003E000F0B590F820500468A468012D05D0022DC6
:1003F00003D0416A41F4802153E014F0406F01D1F1
:10040000E5004BD5C4F30164022C03D9416A41F4E1
:10041000000146E00125A5401D608D684FF4C073C2
:100420009DB1CE6835434E6845EAC605066803EBC4
:100430000417F5514FF4C275076805EB04150E69F2
:100440007E51097D012905D009E00E88CD6845EA75
:100450004655EBE701684E5946F480764E511179C6
:10046000D2F805504FF4C67641EA0525016806EB3F
:1004700004168D511178D2F801204FF4C47541EA69
:100480000221026805EB04155151006803EB0411C9
:10049000425842F0010242500020F0BD416A41F44E
:1004A000001141620120F0BD10B590F82020012A12
:1004B00007D0022A05D0416A41F48021416201201F
:1004C00010BD3B48D0F8002242F00102C0F80022E3
:1004D000D0F8002222F47C52C0F80022D0F800228A
:1004E0004B6A42EA0322C0F800220A7D02F01F0391
:1004F00001229A40D0F81C329343C0F81C32CB69D9
:10050000B3B9D0F80C329343C0F80C328C894B68E5
:1005100064F31F434C6900EBC404C4F840320C89F7
:100520000B6864F31F434C6900EBC404C4F8443205
:10053000CB69012B16D1D0F80C321343C0F80C3222
:100540000C884B6864F31F434C6900EBC404C4F887
:1005500040320C89CB6864F31F434C6900EBC40440
:10056000C4F844328B69002BD0F804320ED0134308
:10057000C0F804320B69002BD0F8143208D01343B2
:10058000C0F81432096A012904D008E09343EFE768
:100590009343F5E7D0F81C121143C0F81C12D0F8B1
:1005A000001221F00101C0F80012002010BD00006F
:1005B0000064004070472DE9F05F054600680024A4
:1005C0004669D0F804908768D0F80CB0D0F810A035
:1005D000D0F81880F10748D0F90714D001218160C4
:1005E000B80703D5284600F0E2F90CE0780702D5F9
:1005F0004FF4006407E0380702D54FF4805402E05E
:10060000284600F0D3F9F80516D529684FF4807014
:100610008860B80503D5284600F0CBF90CE07805D2
:1006200002D544F4005407E0380502D544F4804470
:1006300002E0284600F0BCF9F80316D529684FF40B
:1006400080308860B80303D5284600F0B4F90CE088
:10065000780302D544F4004407E0380302D544F49B
:10066000803402E0284600F0A5F9300707D55FEA9C
:10067000CB6004D52968102044F40074C86070076A
:100680004FF0080707D55FEA0B7004D52868C760EC
:10069000284600F059F9B00706D52868C0688007D9
:1006A00002D0284600F051F9700607D55FEACA600B
:1006B00004D52968102044F480640861B00607D589
:1006C0005FEA0A7004D528680761284600F03EF901
:1006D000F00606D528680069800702D0284600F099
:1006E00036F9B00308D55FEAC96005D5296810203E
:1006F0004860284600F02CF9F00307D55FEA09703E
:1007000004D528684760284600F056F9300446D5DD
:100710005FEA497040D5F00504D55FEAC87001D0A2
:1007200044F00104B00504D55FEA887001D544F0B7
:100730000204700504D55FEA487001D544F0040452
:10074000300529D518F0700F26D008F07000402829
:1007500015D006DC102809D020280AD0302816D160
:100760000AE050280ED0602811D10EE044F00804B1
:100770000DE044F010040AE044F0200407E044F0E7
:10078000400404E044F0800401E044F480742868EC
:10079000816921F070018161296804204860002C82
:1007A00005D0686A204368622846FFF703FFBDE86A
:1007B000F09F70B5040003D094F8200010B104E05D
:1007C000012070BD204600F081F82068016821F00A
:1007D0000201016000F0F8F90546052604E000F08A
:1007E000F3F9401B0A2811D8206840688007F6D426
:1007F0002068016841F00101016000F0E5F905465B
:100800000BE000F0E1F9401B0A2806D9606A40F4C9
:100810000030606284F82060D2E720684068C0073A
:10082000EFD0207E0128206801683DD021F08001B2
:100830000160607E01282068016838D021F0400105
:100840000160A07E01282068016833D021F02001DA
:100850000160E07E0128206801682ED041F010017F
:100860000160207F01282068016829D021F008015B
:100870000160607F01282068016824D021F0040114
:100880000160D4E902010843D4E90412114308438A
:100890006168491E08432168C86100206062012028
:1008A00084F82000002070BD41F08001C0E741F0D5
:1008B0004001C5E741F02001CAE721F01001CFE770
:1008C00041F00801D4E741F00401D9E710B586B042
:1008D000044614216846FFF7ABFC1849206888429B
:1008E00029D117480021026842F0007202600068B6
:1008F00000F00070059012481038026842F00102C2
:100900000260006800F0010005904FF4C0500090B4
:100910000220CDE9010103200390092004906946DB
:10092000084800F06FF800221146142000F0BAF9D0
:10093000142000F0A9F906B010BD000000640040CA
:1009400040380240000002407047704770477047CF
:100950007047000070B5044690F82000012804D0CC
:10096000606A40F40020606218E0022084F82000F1
:100970002068016821F00101016000F025F90546B9
:100980000EE000BF00F020F9401B0A2808D9606A79
:1009900040F400306062052084F82000012070BD22
:1009A00020684068C007EDD1606270BD7047704735
:1009B0007047704770477047704790F835100229AC
:1009C00003D08021416501207047052180F8351052
:1009D0000068016821F001010160002070470000FB
:1009E00070B5044600F0F0F80546601C02D00448DB
:1009F0000078044400F0E8F8401BA042FAD370BD30
:100A0000240000202DE9F84FDFF87CB100224FF0E0
:100A100001084FF0030A4FF00F090BF1040E00BF5D
:100A20000B6808FA02F42340A3426ED14D68022DF0
:100A300001D0122D0ED1D50800EB850CDCF820502A
:100A40005607F70E09FA07F6B5430E69BE402E4366
:100A5000CCF82060066855000F790AFA05FC07F00B
:100A6000030726EA0C06AF40374307604E68012EA5
:100A700005D0022E03D0112E01D0122E0ED1866881
:100A8000CF6826EA0C06AF40374387604668A64326
:100A90000C79C4F30014944034434460C6688C68F5
:100AA00026EA0C06AC403443C4604C68E40065D5CB
:100AB000364C256845F480452560246822F00305FE
:100AC00004F480440094324C2E19D6F80848950757
:100AD0002F0F09FA07F5AC432E4DA84201D100258E
:100AE00024E02D4DA84201D101251FE02B4DA84245
:100AF00001D102251AE02A4DA84201D1032515E0B3
:100B0000284DA84202D1042510E037E0264DA84226
:100B100001D105250AE0254DA84201D1062505E0B1
:100B2000234DA84201D1072500E00825BD402543FB
:100B3000C6F80858DBF800405D464E689C43F60353
:100B400000D51C432C60DEF8004075464E689C437F
:100B5000B60300D51C432C600B4D08352C684E683D
:100B60009C43F60200D51C432C60074D0C352C68C5
:100B70004E689C43B60200D51C432C60521C102AC0
:100B8000FFF44EAFBDE8F88F003C0140443802400E
:100B90000030014000000240000402400008024012
:100BA000000C0240001002400014024000180240F5
:100BB000001C02400069084000D0012070470AB1C3
:100BC000816170470904FBE70148806870470000B5
:100BD0002400002002488168027811448160704737
:100BE000240000200B4810B5016841F40071016039
:100BF000016841F480610160016841F48071016025
:100C0000032000F06FF8002000F006F800F024F850
:100C1000002010BD003C024070B50D4D04464FF45D
:100C20007A712878B1FBF0F00A490968B1FBF0F05D
:100C300000F0E0FA48B9102C07D200222146501EDD
:100C400000F030F800206C6070BD012070BD000025
:100C500024000020300000200A4808B5016841F453
:100C600080410160006800F4804000900548001F4A
:100C7000016841F080510160006800F080500090F0
:100C800008BD000044380240002809DB00F01F02C4
:100C9000012191404009800000F1E020C0F80011DE
:100CA00070470000F0B40E4B1B680C46C3F30223E0
:100CB000C3F10705042D00D90425191D072901D208
:100CC000002300E0DB1E012606FA05F1491E214043
:100CD00099409E40761E16403143F0BC01F036BA72
:100CE0000CED00E0064900F0070208684FF6FF032C
:100CF000184040EA0220034A104308607047000091
:100D00000CED00E00000FA052DE9F0470E46050065
:100D100065D0DFF81481D8F80000F7B200F00F00BA
:100D2000B04207D288F80070D8F8000000F00F0039
:100D3000B04254D128683D4C810712D5400703D5F5
:100D4000206840F4E05020602878000703D5206830
:100D500040F4604020602068A96820F0F00008435B
:100D600020602878C0072DD03049686808390128EC
:100D700012D0022813D0032811D00968890700294E
:100D80002DDA216821F0030101432160FFF71CFFE8
:100D9000814641F2883A0EE009688903EFE7096865
:100DA0008901ECE7FFF710FFA0EB0901514502D9DB
:100DB0000320BDE8F0872068696800F00C00B0EB04
:100DC000810FEFD1D8F80010404601F00F01B14279
:100DD00007D90770006800F00F00B04201D0012071
:100DE000E7E72878400705D52068E96820F4E05057
:100DF000084320602878000706D52068296920F478
:100E0000604040EAC100206000F036F82168084ADE
:100E1000C1F30311515CC840064908600020FFF788
:100E2000FBFE0020C5E70000003C024008380240FD
:100E300008240008300000200448054900680968BB
:100E4000044AC1F38221515CC84070473000002041
:100E50000838024018240008044805490068096859
:100E6000044AC1F34231515CC84070473000002051
:100E70000838024018240008154810B5006810F022
:100E80000C02144813D04110042A0FD0082A0ED1A6
:100E90000F4C241F2268236802F03F025B0207D533
:100EA0002068C0F38810A0FB010106E0084610BDD1
:100EB0002168C1F38811A1FB00010023FFF780F92D
:100EC0002168C1F30141491C4900B0FBF1F010BD9C
:100ED000083802400024F4002DE9F84F050076D0D0
:100EE0002878DFF8F8B2BE4CC00749D0DBF8001014
:100EF0005846C1F38101012908D00068C0F3810080
:100F000002280AD1201D0068400206D5206880030F
:100F100036D568680028E2D032E06868B0F5803FD6
:100F200010D0B0F5A02F206810D020F480302060C1
:100F3000206820F4802020606868A0B1FFF744FE9C
:100F400006460CE0206840F48030F4E740F480204E
:100F50002060F7E7FFF738FE801B642873D820680D
:100F60008003F7D50CE0FFF72FFE064605E000BF33
:100F7000FFF72AFE801B6428F0D820688003F7D48E
:100F80002878DFF8608280074FF000093ED5DBF853
:100F90000010584611F00C0F09D00068C0F3810012
:100FA00002280BD18D48001F0068400206D420683B
:100FB000800715D5E868012809D111E0E868B8B1C3
:100FC0000120C8F80000FFF7FFFD064605E002E13A
:100FD000FFF7FAFD801B0228C0D820688007F7D5EC
:100FE0002068296920F0F80040EAC10020600DE087
:100FF000C8F80090FFF7E8FD064604E0FFF7E4FDBF
:10100000801B02281FD820688007F7D428780007A3
:1010100022D5724E744869696C3671B10121016044
:10102000FFF7D2FD074604E0FFF7CEFDC01B022804
:1010300009D830688007F7D50EE0C0F80090FFF7B8
:10104000C3FD074605E083E0FFF7BEFDC01B022895
:101050007ED830688007F7D42878400768D5DFF855
:101060007CA100270AF1380ADAF80000C0000BD48E
:10107000DAF8001041F08051CAF80010DAF80000E8
:10108000012700F080500090584E3068C00510D401
:10109000306840F480703060FFF796FD009005E006
:1010A000FFF792FD0099401A022851D83068C00518
:1010B000F6D54A4EA868683601280FD00528306852
:1010C00010D020F001003060306820F00400306063
:1010D000A868B8B1FFF778FD00900FE0306840F0E5
:1010E0000100F4E740F004003060F7E7FFF76CFD23
:1010F0000099411A41F28830814264D830688007F3
:10110000F4D50EE0FFF760FD009007E0FFF75CFD0F
:101110000099411A41F28830814254D830688007E2
:10112000F4D42FB1DAF8001021F08051CAF8001081
:10113000A869C0B3DBF80010C1F3810102294AD0CD
:101140000228484607D0C8F86000FFF73DFD00E0E0
:1011500039E005463AE04746C8F86000FFF734FD3D
:10116000064604E0FFF730FD801B02282BD82068DC
:101170008001F7D4D5E907010843A96A1C4A490848
:1011800002EB01416A6A41EA8211084395F82C108A
:1011900040EA01611148001F016001203866FFF735
:1011A00013FD054605E014E0FFF70EFD401B022885
:1011B00009D820688001F7D50BE000BFFFF704FDD8
:1011C000401B022802D90320BDE8F88F2068800167
:1011D000F4D40020F8E70120F6E7000008380240C8
:1011E0000038024000004742800E47420070004035
:1011F0000000FFFF10B5401EB0F1807F01D3012039
:1012000010BD4FF0E02460610F21601700F09EFFD9
:101210000020A06107202061002010BD70477047AA
:1012200070B590F83C20012A19D0012400F83C4FF9
:101230000222427050F83C3C5A689D6822F07006C9
:101240000A684968324325F0800529435A6050F8FE
:101250003C2C9160447000210170084670BD022052
:1012600070BD10B5040003D094F83D0010B107E044
:10127000012010BD002084F83C00204600F00CF84E
:10128000022084F83D00211D206800F029FC012087
:1012900084F83D00002010BD08B501681448B1F184
:1012A000804F14D0134A914220D1016841F00401CB
:1012B00001600068002200F00400009011461E202A
:1012C000FFF7F0FC1E20BDE80840FFF7DDBC016819
:1012D00041F0010101600068002200F0010000906F
:1012E00011461C20FFF7DEFC1C20ECE708BD0000C7
:1012F000403802400008004070B5044690F83C00B9
:10130000012817D0012584F83C50022084F83D00C4
:101310002068826822F0770222F47F4282600868A7
:10132000502830D00DDC20284DD005DC98B3102893
:101330003BD148E0022070BD302844D0402834D151
:1013400039E0602828D0702806D0B0F5805F2CD016
:10135000B0F5005F29D10AE0CB68D1E9012120680E
:1013600000F022FC2068816841F0770109E0CB6839
:10137000D1E90121206800F017FC2068816841F460
:101380008041816011E0CA684968206800F01EFC55
:101390005021206807E016E0CA684968206800F01C
:1013A00026FC6021206800F009FC84F83D500020F4
:1013B00084F83C0070BDCA684968206800F006FCEB
:1013C00040212068EFE7226801461046EBE77047AE
:1013D00070B50446006801694FF00005C9438907EC
:1013E00015D4C168C943890711D4E91E01610120E0
:1013F0002077206880698007204602D0FFF7E7FF4A
:1014000004E000F098F8204600F096F82577206870
:101410000169C943490717D4C168C943490713D4AF
:101420006FF004010161022020772068806910F4C8
:10143000407F204602D0FFF7CAFF04E000F07BF8AF
:10144000204600F079F8257720680169C94309072B
:1014500016D4C168C943090712D46FF008010161AD
:10146000042020772068C0698007204602D0FFF75B
:10147000AEFF04E000F05FF8204600F05DF825774D
:1014800020680169C943C90617D4C168C943C906A0
:1014900013D46FF010010161082020772068C06923
:1014A00010F4407F204602D0FFF791FF04E000F0E7
:1014B00042F8204600F040F8257720680169C943CA
:1014C000C90708D1C168C943C90704D1891E016190
:1014D000204600F032F820680169C943090609D4A2
:1014E000C168C943090605D46FF080010161204637
:1014F000FFF794FE20680169C943490609D4C16811
:10150000C943490605D46FF040010161204600F04F
:1015100015F820680169C94389060BD4C168C9431D
:10152000890607D46FF0200101612046BDE87040B4
:10153000FFF775BE70BD70477047704770477047C2
:1015400070B5026804461068D168536910F00F0F37
:1015500050D003F0010501F4907635435DD0C20709
:1015600005D0CA0503D5E26B42F00102E2634207EF
:1015700005D5DA0703D0E26B42F00202E26382078C
:1015800005D5DA0703D0E26B42F00402E2630207FA
:1015900005D5DA0703D0E26B42F00802E263E26BA2
:1015A000002A33D0800604D5880602D5204600F0F4
:1015B00067FB20684069E16BC0F38010090700D425
:1015C00028B3204600F04EFB2068416949061AD531
:1015D000416921F040014161606BA0B11B49016587
:1015E000606BFFF7EAF9002810D0606B016DBDE871
:1015F00070400847830610D58B060ED52046BDE8FF
:10160000704000F03DBB2046FFF799FF70BD2046BB
:10161000FFF795FF0020E06370BD030606D50B06BB
:1016200004D52046BDE8704000F0CCBC4006F3D5A0
:101630004806F1D5D168204621F04001D160202133
:1016400084F8391000F0CFF870BD0000551C000878
:1016500070B5040004D094F83900002510B106E0FC
:10166000012070BD84F83850204600F023F8242073
:1016700084F839002068C16821F40051C160204617
:1016800000F04AFB2068016921F490410161206863
:10169000416921F02A0141612068C16841F400518B
:1016A000C160E563202084F8390084F83A00002006
:1016B00070BD000010B586B0044614216846FEF7E0
:1016C000B7FD17492068884228D11648016841F4BF
:1016D00000310160006800F40030059011481038B6
:1016E000016841F0010101600068694600F00100F5
:1016F00005900C2000900220019001200290032010
:101700000390072004900848FFF77CF90022114657
:101710002620FFF7C7FA2620FFF7B6FA06B010BD5D
:101720000044004040380240000002402DE9F843E8
:10173000044690F83A00994616460D4620284FD1A7
:1017400095B18EB194F83800012849D0012084F871
:1017500038000027E763222084F83A00FFF734FAC4
:10176000A6858046E68531E00120BDE8F883E08D5E
:10177000401EE085A0684346B0F5805F4FF0000250
:101780004FF020012046CDF8009004D000F04BFC33
:1017900098B10320E9E700F046FC0028F9D1206960
:1017A00000282068406803D0C1B225F8011B0DE075
:1017B000C0F3080125F8021B08E020690028206812
:1017C000406801D000F07F0005F8010BE08D002893
:1017D000CDD1202084F83A0084F838700020C4E786
:1017E0000220C2E770477047FEE70000104810B5BE
:1017F0000E4901600621416000214FF08072C0E96E
:1018000002124FF4102202614FF4801242610176FD
:1018100041768176C17601774177FEF7CAFF0028CD
:1018200003D0BDE81040FEF7B0BD10BD006400401D
:101830004C00002030B587B014216846FEF7F8FC54
:1018400015480024016841F080010160016801F041
:1018500080010591016841F00101016000680F4DB0
:1018600000F001000590224601212846FFF7A7F964
:1018700001210091CDE90114694628460394FFF740
:10188000C1F80220CDE90004694628460294FFF71A
:10189000B9F807B030BD0000303802400000024007
:1018A00010B586B000241748009401940294039464
:1018B00004944FF08041059401605321C0E9011464
:1018C00040F2E731C0E9031480218161FFF7C9FCD0
:1018D00008B1FEF75AFD4FF4805000906946094860
:1018E000FFF70AFD08B1FEF750FD049404A905486E
:1018F0000594FFF795FC002801D0FEF746FD06B0E1
:1019000010BD00007400002010B586B000241748F8
:101910000094019402940394049413490594016083
:101920005321C0E901140921C0E903148021816118
:10193000FFF797FC08B1FEF728FD4FF480500090A8
:1019400069460A48FFF7D8FC08B1FEF71EFD04946B
:1019500004A906480594FFF763FC002801D0FEF7B0
:1019600014FD06B010BD000000080040B4000020C7
:101970000C4810B50A4901604FF461214160002113
:1019800081600C22C160C0E904128161C161FFF76E
:101990005FFE002803D0BDE81040FEF7F6BC10BD86
:1019A00000440040F4000020FEE770477047704795
:1019B000FFF710B930B593B030216846FEF738FC18
:1019C00014210CA8FEF734FC19480025016841F0E9
:1019D00080510160006800F0805011901548016846
:1019E00041F4804101600068022400F480401190BD
:1019F0000120039010200490009406940820CDE963
:101A00000750A820CDE9090404200B906846FFF791
:101A100063FA0CA90F2081E831004FF4A0500F9019
:101A2000E002109005210CA8FFF76EF913B030BD4D
:101A300040380240007000401048016841F47001D5
:101A400001600F48016841F0010101600C4A00216A
:101A50000832116002680B4B1A400260031D0A4AEB
:101A60001A60026822F48022026005480C3001608E
:101A700002495806803908607047000088ED00E090
:101A800000380240FFFFF6FE1030002410B5044875
:101A9000FFF79EFC03484178491C417010BD0000CF
:101AA000740000201E00002010B50948FFF790FCCC
:101AB00008480178084809B10178491C01700749B4
:101AC0000978002902D08188491C818010BD00005E
:101AD000B4000020010000201E00002003000020B0
:101AE000F0B50268254C264D264E274F274B4FF068
:101AF000804CA04209D0604507D0A84205D0B04232
:101B000003D0B84201D0984204D122F0700E4A6846
:101B100042EA0E02A0421BD0604519D0A84217D05D
:101B2000B04215D0B84213D0984211D0184DA842F7
:101B30000ED0184DA8420BD0174DA84208D0174D13
:101B4000A84205D0164DA84202D0164DA84203D196
:101B500022F44075CA682A434D6922F080022A4364
:101B600002608A68C2620A688262A04201D098421A
:101B700001D10969016301214161F0BD000001400B
:101B80000004004000080040000C00400004014038
:101B9000004001400044014000480140001800405E
:101BA000001C00400020004010B5846842EA032277
:101BB00024F47F440A432243826010BD826822F0ED
:101BC00070020A4342F007018160704710B5036A52
:101BD000046A24F001040462846924F0F00444EAF5
:101BE000021423F00A020A438461026210BD10B598
:101BF000036A23F0100303628369046A23F47043C9
:101C000043EA023224F0A00343EA01118261016237
:101C100010BD000070B50D4C2078002814D10125AE
:101C200065700B4E05E0012211463046FEF7C7FFF6
:101C30002570FEF7B7FB0128F5DB002201213046B5
:101C4000FEF7BDFF0020607070BD000000000020A6
:101C50000000024010B5806B0021C185C184FFF7F0
:101C60006EFC10BD0168CA6822F49072CA600168F7
:101C70004A6922F001024A61202180F83A10704737
:101C800010B590F83A10222901D0022010BD8168C9
:101C9000B1F5805F11D00169002901681FD0496842
:101CA00001F07F03816A4A1C82620B70C18D491E5C
:101CB0000904090CC18518D02BE00269816A002A49
:101CC0000268526805D0D2B20A80816A491C8162DA
:101CD000ECE7C2F308020A80816A891CF7E74A68C8
:101CE000816A4B1C83620A70E0E70168CA6822F0CF
:101CF0002002CA600168CA6822F48072CA60016862
:101D00004A6922F001024A61202180F83A10FFF767
:101D100069FD002010BD00002DE9F0410446006877
:101D20000169E26821F44051114301612169A06811
:101D3000E26908436169114322680843D16849F2A6
:101D40000C6399430143D16020684169A26921F481
:101D5000407111434161E2696425B2F5004F974833
:101D6000974922684FF032083FD08A4201D0824220
:101D70007CD1FFF771F800EBC00101EB0010616846
:101D80008900B0FBF1F6FFF767F800EBC00101EB4B
:101D9000001061688900B0FBF1F0B0FBF5F06FF066
:101DA0001801484306EB800108EB0110B0FBF5F089
:101DB00000F0F006FFF750F800EBC00101EB001057
:101DC00061688900B0FBF1F0B0FBF5F006EB00169E
:101DD000FFF742F800EBC00101EB001061688900D9
:101DE000B0FBF1F7FFF738F8D2E08A4201D0824227
:101DF0003DD1FFF731F800EBC00101EB0010616845
:101E00004900B0FBF1F0B0FBF5F00601FFF724F854
:101E100000EBC00101EB001061684900B0FBF1F775
:101E2000FFF71AF800EBC00101EB001061684900F0
:101E3000B0FBF1F0B0FBF5F06FF01801484307EB91
:101E4000800108EBC100B0FBF5F000F0F80006EBF4
:101E50004006FFF701F800EBC00101EB00106168DC
:101E60004900B0FBF1F7FEF7F7FF3CE055E0FEF765
:101E7000E3FF00EBC00101EB001061684900B0FB1B
:101E8000F1F0B0FBF5F00601FEF7D6FF00EBC00164
:101E900001EB001061684900B0FBF1F7FEF7CCFFE1
:101EA00000EBC00101EB001061684900B0FBF1F0EC
:101EB000B0FBF5F06FF01801484307EB800108EB29
:101EC000C100B0FBF5F000F0F80006EB4006FEF7AD
:101ED000B3FF00EBC00101EB001061684900B0FBEB
:101EE000F1F7FEF7A9FF00EBC00101EB00106168FC
:101EF0004900B0FBF1F0B0FBF5F06FF0180148437A
:101F000007EB800108EBC100B0FBF5F000F0070023
:101F1000216830448860BDE8F081FEF78DFF00EB5A
:101F2000C00101EB001061688900B0FBF1F6FEF71B
:101F300083FF00EBC00101EB001061688900B0FB7A
:101F4000F1F0B0FBF5F06FF01801484306EB8001AB
:101F500008EB0110B0FBF5F000F0F006FEF76CFFA7
:101F600000EBC00101EB001061688900B0FBF1F0EB
:101F7000B0FBF5F006EB0016FEF75EFF00EBC001CC
:101F800001EB001061688900B0FBF1F7FEF754FF28
:101F900000EBC00101EB001061688900B0FBF1F0BB
:101FA000B0FBF5F06FF01801484307EB800108EB38
:101FB0000110B0FBF5F000F00F00A9E7001401409C
:101FC0000010014090F83910212901D002207047FB
:101FD0008168B1F5805F016A0BD04A1C0262026819
:101FE00009785160C18C491E0904090CC1840ED0C6
:101FF00017E009880268C1F30801516001690029EE
:10200000016A02D0491C0162ECE7891CFBE7016808
:10201000CA6822F08002CA600068C16841F04001CD
:10202000C160002070472DE9F041984617460E46E2
:102030000446069D1DE0681C1BD02DB1FEF7C4FDB3
:10204000A0EB0800A84214D92068C16821F4D0711F
:10205000C1602068416921F001014161202084F8BC
:10206000390084F83A00002084F838000320BDE8E5
:10207000F0812068006836EA000004D00020B842F1
:10208000D9D00020F3E70120F9E7000038B51D485A
:1020900000680168C94389062AD46FF020010160F5
:1020A0000223012269461748FFF740FB1748164BE9
:1020B0009DF8002081785A54491CC9B200228170D1
:1020C000012908D90B4413F8014C0A2C03D113F849
:1020D000024C0D2C03D0142910D382700EE00C4951
:1020E00013F8044C0C7013F8053C4B708A70F4E73D
:1020F0000223012269460348FFF718FB0148FFF756
:102100001FFA38BDF4000020340100201E0000201A
:1021100018000020FEE7000070B50A4D0221284695
:10212000FEF748FD0028F9D0074C0126E670022191
:102130002846FEF73FFD0128F9D00020E070A67088
:1021400070BD000000000240000000200907090ED9
:10215000002804DB00F1E02080F80014704700F054
:102160000F0000F1E02080F8141D704702E008C85D
:10217000121F08C1002AFAD170477047002001E001
:1021800001C1121F002AFBD170470000FEF72AFD93
:10219000FFF710FCFFF74EFBFFF728FBFFF780FB74
:1021A000FFF7E6FBFFF7B0FB7D480068C16841F030
:1021B0002001C1607B490868026842F001020260A8
:1021C0000868C16841F00101C16077490868026888
:1021D00042F0010202600868C16841F00101C1607B
:1021E000FEF778F87148FEF7B5FB02216F48FEF75D
:1021F000E5F84FF400616D48FEF7E0F84FF48061B8
:102200006A48FEF7DBF84FF400416848FEF7D6F85D
:102210000520FEF7E5FB674C654F04264FF0010BE8
:102220004FF0000A4FF04108A51D4FF054092069F6
:10223000B84202DA84F804A02AE05F49884202DA50
:1022400084F804B024E05D49884201DA02201EE0EF
:102250005B49884201DA032019E05A49884201DAD1
:10226000267115E05849884201DA05200FE05749E8
:10227000884201DA06200AE05549884201DA07203F
:1022800005E05449884201DA082000E00920207165
:10229000484851A11830FDF7D6FFB0B345484FA1CB
:1022A0001830FDF7D0FF88B342484DA11830FDF734
:1022B000CAFF60B33F484BA11830FDF7C4FF38B3E5
:1022C0003C4849A11830FDF7BEFF58B3394847A133
:1022D0001830FDF7B8FF38B3364845A11830FDF780
:1022E000B2FF18B3334843A11830FDF7ACFFF8B183
:1022F000304841A11830FDF7A6FFD8B12D483FA1C5
:102300001830FDF7A0FFB8B118E002E004E005E0E6
:1023100006E084F805B011E002200EE003200CE096
:1023200066710BE0052008E0062006E0072004E0C7
:10233000082002E0092000E00A206071FEF726F87C
:1023400070B1FFF767FCFFF7E7FEA07840B1FDF73B
:10235000E1FF2B49A1F800A084F802A084F800A0B6
:1023600085F8008085F801902079A8706079E87080
:1023700001212448E660FDF7C3FF0E4B21490C33D1
:102380009A1F0A48FEF72CF802211E48FDF7B8FFF5
:10239000084B1C490C339A1F0448FEF721F846E706
:1023A000F400002074000020B40000204C00002045
:1023B0000000204100000020000048420000C84208
:1023C000000016430000484300007A430000964393
:1023D0000000AF430000C84330310000303200003D
:1023E000303300003034000030350000303600005B
:1023F0003037000030380000303900003130000044
:102400002200002034000020000000000000000036
:10241000010203040607080900000000010203048A
:102420004024000800000020340000006C21000857
:102430007424000834000020140500007C210008EA
:10244000000000000000000000000000000000008C
:10245000000000000000000000000000000000007C
:10246000000000000100000010000000000000005B
:042470000024F40050
:040000050800018965
:00000001FF
