:020000040800F2
:10000000E0040020D901000853180008B3160008C6
:1000100051180008A9060008292000080000000067
:100020000000000000000000000000005718000859
:100030009107000800000000551800085918000832
:10004000F3010008F3010008F3010008F3010008C0
:10005000F3010008F3010008F3010008F3010008B0
:10006000F3010008F3010008F3010008F3010008A0
:10007000F3010008F3010008F3010008F301000890
:10008000F3010008F3010008F3010008F301000880
:10009000F3010008F3010008F3010008F301000870
:1000A000F3010008F3010008F3010008F301000860
:1000B00039190008F301000855190008F301000878
:1000C000F3010008F3010008F3010008F301000840
:1000D000F3010008F30100083D1F0008F3010008C8
:1000E000F3010008F3010008F3010008F301000820
:1000F000F3010008F3010008F3010008F301000810
:10010000F3010008F3010008F3010008F3010008FF
:10011000F3010008F3010008F3010008F3010008EF
:10012000F3010008F3010008F3010008F3010008DF
:10013000F30100080000000000000000F3010008C7
:10014000F3010008F3010008F3010008F3010008BF
:10015000F3010008F3010008F3010008F3010008AF
:10016000F3010008F3010008F3010008F30100089F
:10017000F3010008F3010008F3010008000000008B
:1001800000000000F3010008000000000000000073
:10019000F30100080000000000000000F301000867
:1001A000000000000000000000000000F301000853
:1001B000F3010008F3010008F3010008F30100084F
:1001C000F3010008DFF80CD000F05CFA00480047AB
:1001D00015240008E0040020064880470648004730
:1001E000FEE7FEE7FEE7FEE7FEE7FEE7FEE7FEE7E7
:1001F000FEE7FEE7E5180008C50100082DE9F05FFD
:100200000546002092469B46884606468146402485
:100210001BE0284641464746224600F0B4F95346C3
:100220005A46C01A914110D311461846224600F092
:100230009BF92D1A67EB01084F4622460120002149
:1002400000F092F917EB00094E41201EA4F10104C1
:10025000DFDC484631462A464346BDE8F09FD2B22D
:1002600001E000F8012B491EFBD270470022F6E79F
:1002700010B513460A4604461946FFF7F0FF20461C
:1002800010BD421C10F8011B0029FBD1801A7047D9
:100290002DE9FE4F804681EA0300C00F0C46009016
:1002A00021F0004123F00045B8EB0200A94105D23E
:1002B0004046214690461C460B46024623F000402D
:1002C000104347D0270DC7F30A00C3F30A51029029
:1002D000401A019040286BDAC3F3130040F4801BEE
:1002E0000098924620B10023D2EB030A63EB0B0B7C
:1002F00001985946C0F14002504600F035F90646D3
:100300000D4650465946019A00F04DF910EB080091
:100310006141002487EA115284EAE7731A4340D00E
:10032000009A62B3019A012A4FEA075215DC001BBA
:1003300061EB02014FF0004202EA0752CDE90042B0
:10034000001C41F5801132462B4600F04DF903B0F8
:10035000BDE8F08F40462146F9E7001B61EB020142
:10036000001C41F5801300185B412018A2F500170E
:1003700047EB030140EAD570B6196D4111E06D08F5
:100380004FEA360645EAC0754FEA0752001B61EB9B
:100390000201001C41F5801149084FEA30000019A4
:1003A000514132462B4603B0BDE8F04F00F00DB985
:1003B0000098012240000023D0EB020263EBE073BF
:1003C000009821464FEAE074B8EB000061EB0401AD
:1003D000E9E783F000435BE781F0004158E72DE94E
:1003E000FE4F81EA030404F0004421F00041009430
:1003F0004FF0000B23F0004350EA01045ED052EAB4
:1004000003045BD0C3F30A54C1F30A552C44A4F28D
:10041000F3340194A0FB0254C1F3130141F48011A1
:10042000C3F3130343F4801301FB024400FB034EA8
:10043000840A970A44EA815447EA8357A4FB076871
:1004400002958D0A05FB07854FEA932C04FB0C549B
:100450002705029D4FEA065847EA1637B5EB08050F
:100460006EEB070C870E920E47EA811742EA831261
:10047000A7FB0201B6EB0B0164EB00042B0D43EA72
:100480000C335E1844EB1C50DA465146E7FB020180
:10049000C5F313044FEA0B3343EA14534FEA043213
:1004A000019C43EA0603A4F10C040294009CCDE9EC
:1004B00000B400F099F803B0BDE8F08F00200146C9
:1004C000F9E70EB5C10F80EAE0700844CA070021C1
:1004D00040F233438DE80E000A460B4600F084F8E4
:1004E00003B000BDC1F30A5210B5C1F3130140F2CD
:1004F000FF3341F480119A4201DA002010BD40F22E
:1005000033439A42A2F2334203DC524200F03BF8FA
:1005100010BD904010BD00F0004230F000400AD005
:10052000C10D01F56071C0F3160042EA0151C20825
:1005300040071143704700200146704730B50B4615
:10054000014600202022012409E021FA02F59D4203
:1005500005D303FA02F5491B04FA02F52844151ED7
:10056000A2F10102F1DC30BD202A04DB203A00FABE
:1005700002F1002070479140C2F1200320FA03F3FA
:10058000194390407047202A04DB203A21FA02F0F8
:100590000021704721FA02F3D040C2F120029140BD
:1005A000084319467047202A06DBCB17203A41FA48
:1005B00002F043EAE07306E041FA02F3D040C2F1F0
:1005C0002002914008431946704710B5141E73F17C
:1005D000000408DA401C41F1000192185B411A4303
:1005E00001D120F0010010BD2DE9F04D92469B464F
:1005F00011B1B1FA81F202E0B0FA80F220329046F5
:10060000FFF7B2FF04460F4640EA0A0041EA0B0139
:1006100053465A46084313D0114653EA010019D0F5
:10062000C8F140025046FFF7AEFF05460E46504661
:1006300059464246FFF798FF084305D0012004E0E1
:1006400020463946BDE8F08D0020054346EAE076B5
:100650002C4337430A986305E40AA0EB0800002204
:10066000FD0A44EA47540A3002D500200146E9E772
:10067000010510196941DDE9084500196941BDE826
:10068000F04DA2E7064C074D06E0E06840F001039C
:1006900094E8070098471034AC42F6D3FFF796FD74
:1006A000C4240008E4240008FEE7000016489FED7B
:1006B000171A194A018848F2D040484300EE100A40
:1006C0001348F8EEC00A80EE810A00EE901A9FED02
:1006D000111AF8EE600AC0EE811A10EE101A80EDC1
:1006E000010A9142C0ED021A03DB9FED0C0A80ED76
:1006F000010A10EE101AB1F1804F03DCB0EE000ACF
:1007000080ED010A704700000E00002000504348B1
:10071000000000200000C8420000C8430000C84399
:1007200010B50523082211A1134800F064FF134CF3
:10073000114894ED010A01F007FC0523022210A1E3
:100740000D4800F058FF052306220EA10A4800F0CC
:1007500052FF94ED020A084801F0F6FB0523BDE8BC
:100760001040022209A1044800F045BF48656967AE
:1007700068743A2000000000A00000200000002063
:100780000909000054696D653A2000000D0A000057
:1007900070477047044841780A2903D3002141700B
:1007A00001207047002070470C00002004480178A9
:1007B000022903D3002101700120704700207047F7
:1007C0000C00002090F83510022903D080214165EB
:1007D00001207047052180F835100068016821F07C
:1007E000010101600020704770B5044600F0EAF88E
:1007F0000546601C02D004480078044400F0E2F88A
:10080000401BA042FAD370BD100000202DE9F84F24
:10081000DFF874B100224FF001084FF0030A4FF0E7
:100820000F090BF1040E00BF0B6808FA02F4234015
:10083000A3426ED14D68022D01D0122D0ED1D508E4
:1008400000EB850CDCF820505607F70E09FA07F686
:10085000B5430E69BE402E43CCF8206006685500B3
:100860000F790AFA05FC07F0030726EA0C06AF40E9
:10087000374307604E68012E05D0022E03D0112E9B
:1008800001D0122E0ED18668CF6826EA0C06AF4042
:10089000374387604668A6430C79C4F3001494403C
:1008A00034434460C4688E6824EA0C04AE40264396
:1008B000C6604C68E40060D5344C256845F480453A
:1008C0002560246822F0030504F480440094304C31
:1008D0002E19D6F8084895072F0F09FA07F5AC43EB
:1008E0002C4DA84201D100251FE02B4DA84201D17B
:1008F00001251AE0294DA84201D1022515E0284D15
:10090000A84201D1032510E0264DA84202D10425BA
:100910000BE032E0244DA84201D1052505E0234D2E
:10092000A84201D1062500E00725BD402543C6F8B1
:100930000858DBF800405D464E689C43F60300D53E
:100940001C432C60DEF8004075464E689C43B6039D
:1009500000D51C432C600C4D08352C684E689C4318
:10096000F60200D51C432C60074D0C352C684E68F0
:100970009C43B60200D51C432C60521C102AFFF485
:1009800053AFBDE8F88F0000003C014044380240FE
:100990000030014000000240000402400008024014
:1009A000000C0240001002400014024000180240F7
:1009B0000069084000D0012070470AB1816170478A
:1009C0000904FBE701488068704700001000002020
:1009D000024881680278114481607047100000204D
:1009E0000B4810B5016841F400710160016841F4E1
:1009F00080610160016841F480710160032000F0B2
:100A00006FF8002000F006F800F024F8002010BD78
:100A1000003C024070B50D4D04464FF47A712878C1
:100A2000B1FBF0F00A490968B1FBF0F000F046FBB9
:100A300048B9102C07D200222146501E00F030F891
:100A400000206C6070BD012070BD0000100000200F
:100A50001C0000200A4808B5016841F4804101608B
:100A6000006800F4804000900548001F016841F0D4
:100A700080510160006800F08050009008BD0000C7
:100A800044380240002809DB00F01F020121914098
:100A90004009800000F1E020C0F80011704700001C
:100AA000F0B40E4B1B680C46C3F30223C3F10705D9
:100AB000042D00D90425191D072901D2002300E0C7
:100AC000DB1E012606FA05F1491E214099409E4091
:100AD000761E16403143F0BC01F0D6BA0CED00E0B2
:100AE000064900F0070208684FF6FF03184040EA85
:100AF0000220034A10430860704700000CED00E03C
:100B00000000FA052DE9F8431748016841F08051CB
:100B100001600068154F00F08050012600903E648F
:100B2000FFF750FF05464FF47A78114C05E000BFFF
:100B3000FFF748FF401B40450DD86068C003F7D55C
:100B40007E64FFF73FFF0546464607E0FFF73AFFA2
:100B5000401BB04202D90320BDE8F88360688003DF
:100B6000F4D50020F8E700004038024000000E42B3
:100B7000007000402DE9F0470E46050065D0DFF813
:100B80001481D8F80000F7B200F00F00B04207D28D
:100B900088F80070D8F8000000F00F00B04254D17F
:100BA00028683D4C810712D5400703D5206840F4E2
:100BB000E05020602878000703D5206840F46040AA
:100BC00020602068A96820F0F000084320602878A1
:100BD000C0072DD0304968680839012812D0022892
:100BE00013D0032811D00968890700292DDA21685C
:100BF00021F0030101432160FFF7E4FE814641F249
:100C0000883A0EE009688903EFE709688901ECE793
:100C1000FFF7D8FEA0EB0901514502D90320BDE83A
:100C2000F0872068696800F00C00B0EB810FEFD10D
:100C3000D8F80010404601F00F01B14207D9077003
:100C4000006800F00F00B04201D00120E7E72878EB
:100C5000400705D52068E96820F4E050084320608B
:100C60002878000706D52068296920F4604040EA0A
:100C7000C100206000F036F82168084AC1F3031172
:100C8000515CC840064908600020FFF7C3FE002001
:100C9000C5E70000003C024008380240AC240008D0
:100CA0001C0000200448054900680968044AC1F393
:100CB0008221515CC84070471C0000200838024067
:100CC000BC2400080448054900680968044AC1F3C7
:100CD0004231515CC84070471C0000200838024077
:100CE000BC240008224810B5006810F00C0221480E
:100CF00015D04110042A11D01D4C241F082A0FD0F2
:100D00000C2A0CD12268236802F03F025B0221D535
:100D10002068C0F38810A0FB010120E0084610BD48
:100D20002268236802F03F025B0205D52068C0F309
:100D30008810A0FB010104E02168C1F38811A1FB28
:100D400000010023FFF75AFA2168C1F30141491C51
:100D500049000AE02168C1F38811A1FB00010023CA
:100D6000FFF74CFA2168C1F30271B0FBF1F010BD3E
:100D7000083802400024F4002DE9F84F0546DFF85A
:100D800028B30078ABF10407C007A7F1040451D0E1
:100D9000DBF800105846C1F3810101290FD001682A
:100DA000C1F38101022902D13968490207D40068E0
:100DB000C0F38100032809D13868400206D52068B5
:100DC000800337D56868002872D033E06868B0F5D2
:100DD000803F10D0B0F5A02F206810D020F48030D4
:100DE0002060206820F4802020606868A8B1FFF7A8
:100DF000E9FD06460DE0206840F48030F4E740F459
:100E000080202060F7E700BFFFF7DCFD801B64282F
:100E100078D820688003F7D50CE0FFF7D3FD0646AD
:100E200005E000BFFFF7CEFD801B6428F0D82068E6
:100E30008003F7D42878DFF8749280074FF0000A17
:100E400046D5DBF80010584611F00C0F0FD00168A2
:100E5000C1F38101022902D13968490207D500682E
:100E6000C0F38100032809D13868400206D4206805
:100E7000800715D5E86801281AD111E0E868C0B1EB
:100E80000120C9F80000FFF79DFD064605E000BF00
:100E9000FFF798FD801B0228BAD820688007F7D595
:100EA0002068296920F0F80040EAC10020600FE0C6
:100EB000F7E0C9F800A0FFF785FD064605E000BF92
:100EC000FFF780FD801B02281CD820688007F7D41C
:100ED0002878000727D5DFF8D0817548696908F1BF
:100EE0006C0881B101210160FFF76CFD064604E04A
:100EF000FFF768FD801B022804D8D8F8000080079F
:100F0000F6D510E089E0C0F800A0FFF75BFD0646CB
:100F100005E000BFFFF756FD801B02287DD8D8F8FA
:100F200000008007F6D42878400769D55E484FF066
:100F3000000838300068C0000BD45B4838300168C6
:100F400041F08051016000684FF0010800F08050CE
:100F50000090584E3068C00511D4306840F480705D
:100F60003060FFF72FFD009006E000BFFFF72AFD7D
:100F70000099401A022850D83068C005F6D54A4E6C
:100F8000A868683601280FD00528306810D020F0F6
:100F900001003060306820F004003060A868B8B10B
:100FA000FFF710FD00900FE0306840F00100F4E71B
:100FB00040F004003060F7E7FFF704FD0099411AA4
:100FC00041F28830814264D830688007F4D50EE061
:100FD000FFF7F8FC009007E0FFF7F4FC0099411AD6
:100FE00041F28830814254D830688007F4D4B8F197
:100FF000000F05D02C483830016821F08051016085
:10100000A869A8B3DBF80010C1F38101022948D018
:101010000228C9F860A005D000E03AE0FFF7D2FC52
:10102000054639E0FFF7CEFC064604E0FFF7CAFCB0
:10103000801B02282DD820688001F7D4F5E907012C
:101040000843E9681C4A490802EB0141AA6841EAE1
:1010500082110843297C40EA0160297D40EA017041
:1010600038600120C9F86000FFF7ACFC054606E0D7
:1010700015E000BFFFF7A6FC401B022809D8206836
:101080008001F7D50BE000BFFFF79CFC401B022856
:1010900002D90320BDE8F88F20688001F4D4002035
:1010A000F8E70120F6E70000083802400000474258
:1010B000800E4742007000400000FFFF10B5401E48
:1010C000B0F1807F01D3012010BD4FF0E0246061BA
:1010D0000F21601700F0D8FF0020A06107202061D9
:1010E000002010BD7047704770B590F83C20012A71
:1010F00019D0012400F83C4F0222427050F83C3CC9
:101100005A689D6822F070060A684968324325F0E3
:10111000800529435A6050F83C2C916044700021AE
:101120000170084670BD022070BD10B5040003D0E8
:1011300094F83D0010B107E0012010BD002084F8B4
:101140003C00204600F00CF8022084F83D00211DF0
:10115000206800F01BFC012084F83D00002010BD39
:1011600008B501681448B1F1804F14D0134A914278
:1011700020D1016841F0040101600068002200F004
:101180000400009011461E20FFF78AFC1E20BDE8D7
:101190000840FFF777BC016841F001010160006879
:1011A000002200F00100009011461C20FFF778FC9F
:1011B0001C20ECE708BD0000403802400008004059
:1011C00070B5044690F83C00012817D0012584F83A
:1011D0003C50022084F83D002068826822F07702AB
:1011E00022F47F4282600868502830D00DDC20282D
:1011F0004DD005DC98B310283BD148E0022070BDEB
:10120000302844D0402834D139E0602828D07028D4
:1012100006D0B0F5805F2CD0B0F5005F29D10AE090
:10122000CB68D1E90121206800F014FC20688168B6
:1012300041F0770109E0CB68D1E90121206800F095
:1012400009FC2068816841F48041816011E0CA682E
:101250004968206800F010FC5021206807E016E083
:10126000CA684968206800F018FC6021206800F016
:10127000FBFB84F83D50002084F83C0070BDCA6838
:101280004968206800F0F8FB40212068EFE72268F9
:1012900001461046EBE7704770B5044600680169E7
:1012A0004FF00005C943890715D4C168C9438907B0
:1012B00011D4E91E01610120207720688069800730
:1012C000204602D0FFF7E7FF04E000F098F8204640
:1012D00000F096F8257720680169C943490717D4BB
:1012E000C168C943490713D46FF0040101610220AA
:1012F00020772068806910F4407F204602D0FFF7F5
:10130000CAFF04E000F07BF8204600F079F825776A
:1013100020680169C943090716D4C168C943090790
:1013200012D46FF008010161042020772068C069A1
:101330008007204602D0FFF7AEFF04E000F05FF820
:10134000204600F05DF8257720680169C943C90689
:1013500017D4C168C943C90613D46FF010010161E5
:10136000082020772068C06910F4407F204602D012
:10137000FFF791FF04E000F042F8204600F040F84B
:10138000257720680169C943C90708D1C168C943E5
:10139000C90704D1891E0161204600F032F8206897
:1013A0000169C943090609D4C168C943090605D4BE
:1013B0006FF0800101612046FFF794FE206801690B
:1013C000C943490609D4C168C943490605D46FF029
:1013D00040010161204600F015F820680169C94309
:1013E00089060BD4C168C943890607D46FF0200170
:1013F00001612046BDE87040FFF775BE70BD7047C3
:10140000704770477047704770B5026804461068AF
:10141000D168536910F00F0F50D003F0010501F4AB
:10142000907635435DD0C20705D0CA0503D5E26B7F
:1014300042F00102E263420705D5DA0703D0E26B0E
:1014400042F00202E263820705D5DA0703D0E26BBD
:1014500042F00402E263020705D5DA0703D0E26B2B
:1014600042F00802E263E26B002A33D0800604D522
:10147000880602D5204600F05BFB20684069E16BDE
:10148000C0F38010090700D428B3204600F042FBC7
:101490002068416949061AD5416921F0400141613E
:1014A000606BA0B11B490165606BFFF78BF90028E9
:1014B00010D0606B016DBDE870400847830610D501
:1014C0008B060ED52046BDE8704000F031BB2046AB
:1014D000FFF799FF70BD2046FFF795FF0020E063FE
:1014E00070BD030606D50B0604D52046BDE8704046
:1014F00000F0C0BC4006F3D54806F1D5D1682046BF
:1015000021F04001D160202184F8391000F0D0F89A
:1015100070BD0000051B000870B5040004D094F8ED
:101520003900002510B106E0012070BD84F8385064
:10153000204600F023F8242084F839002068C16890
:1015400021F40051C160204600F03EFB2068016993
:1015500021F4904101612068416921F02A01416133
:101560002068C16841F40051C160E563202084F81F
:10157000390084F83A00002070BD000010B586B034
:10158000044614216846FEF771FE17492068884218
:1015900028D11648016841F400310160006800F468
:1015A0000030059011481038016841F001010160D8
:1015B0000068694600F0010005900C2000900220B0
:1015C0000190012002900320039007200490084816
:1015D000FFF71CF9002211462620FFF761FA2620AA
:1015E000FFF750FA06B010BD0044004040380240FA
:1015F0000000024070472DE9F843044690F8390096
:101600001F4616460D46202850D1A5B19EB194F82C
:10161000380001284AD0012084F838004FF0000833
:10162000C4F83C80212084F83900FFF7CBF9A68468
:101630008146E68426E00120BDE8F883E08C401E68
:10164000E084A0684B46B0F5805F4FF000024FF099
:1016500080012046009703D000F03DFCE8B90DE082
:1016600000F039FCC8B928882168C0F30800486038
:10167000206908B16D1C05E0AD1C03E0216815F878
:10168000010B4860E08C0028D8D14B460022402155
:101690002046009700F01FFC08B10320CCE7202073
:1016A00084F8390084F838800020C5E70220C3E7B9
:1016B0007047FEE770B586B014216846FEF7D6FD88
:1016C0001E480024016841F080010160016801F0BA
:1016D00080010591016841F001010160016801F09C
:1016E00001010591016841F004010160016801F008
:1016F00004010591016841F0020101600068104E8B
:1017000000F002004FF48065059000222946304623
:10171000FFF753F92020CDE90004694609480294F7
:10172000FFF774F801200095CDE9010469463046C1
:101730000394FFF76BF806B070BD0000303802402C
:10174000000402400008024010B586B0002417488B
:10175000009401940294039404944FF08041059402
:1017600001605921C0E9011440F2E731C0E90314D6
:1017700080218161FFF7D9FC08B1FFF70AF84FF427
:101780008050009069460948FFF71AFD08B1FFF73D
:1017900000F8049404A905480594FFF7A5FC002867
:1017A00001D0FEF7F6FF06B010BD000020000020BB
:1017B00010B586B000241748009401940294039455
:1017C00004941349059401605921C0E901140921C9
:1017D000C0E9031480218161FFF7A7FC08B1FEF77F
:1017E000D8FF4FF48050009069460A48FFF7E8FCA4
:1017F00008B1FEF7CEFF049404A906480594FFF74C
:1018000073FC002801D0FEF7C4FF06B010BD000035
:1018100000080040600000200C4810B50A49016033
:101820004FF4E1314160002181600C22C160C0E9C8
:1018300004128161C161FFF76FFE002803D0BDE88B
:101840001040FEF7A6BF10BD00440040A0000020DD
:10185000FEE7704770477047FFF7BAB830B593B0EE
:1018600034216846FEF702FD14210DA8FEF7FEFCA8
:101870001A480025016841F080510160006800F0BD
:10188000805012901648016841F4404101600068A0
:10189000022400F4404012900120009000040190C6
:1018A0008001CDE9064004200890B420CDE9090468
:1018B0000B9468460C94FFF75FFAFFF723F90DA924
:1018C0000F2081E831004FF4A0501090E0021190F9
:1018D00005210DA8FFF74EF913B030BD4038024086
:1018E000007000401048016841F4700101600F4829
:1018F000016841F0010101600C4A002108321160C9
:1019000002680B4B1A400260031D0A4A1A60026803
:1019100022F48022026005480C300160024958061A
:10192000803908607047000088ED00E00038024010
:10193000FFFFF6FE1030002410B50448FFF7ACFCA2
:1019400003484178491C417010BD00002000002070
:101950000C00002010B50948FFF79EFC08480178EC
:10196000084809B10178491C017007490978002924
:1019700002D04188491C418010BD00006000002059
:10198000010000200C00002003000020F0B50268D8
:10199000254C264D264E274F274B4FF0804CA0421A
:1019A00009D0604507D0A84205D0B04203D0B84264
:1019B00001D0984204D122F0700E4A6842EA0E0229
:1019C000A0421BD0604519D0A84217D0B04215D014
:1019D000B84213D0984211D0184DA8420ED0184DDD
:1019E000A8420BD0174DA84208D0174DA84205D0E9
:1019F000164DA84202D0164DA84203D122F44075DC
:101A0000CA682A434D6922F080022A4302608A682C
:101A1000C2620A688262A04201D0984201D109697B
:101A2000016301214161F0BD00000140000400405C
:101A300000080040000C004000040140004001404C
:101A4000004401400048014000180040001C0040D4
:101A50000020004010B5846842EA032224F47F4449
:101A60000A432243826010BD826822F070020A435A
:101A700042F007018160704710B5036A046A24F0E0
:101A800001040462846924F0F00444EA021423F09F
:101A90000A020A438461026210BD10B5036A23F092
:101AA000100303628369046A23F4704343EA023239
:101AB00024F0A00343EA01118261016210BD00001D
:101AC0002DE9F0410D4C2078002815D101256570D5
:101AD000AE020B4F05E0012231463846FEF76DFF9E
:101AE0002570FEF763FE0128F5DB002231463846FB
:101AF000FEF763FF00206070BDE8F0810000002069
:101B00000004024010B5806B0021C185C184FFF73D
:101B10007AFC10BD0168CA6822F49072CA6001683C
:101B20004A6922F001024A61202180F83A10704788
:101B300010B590F83A10222901D0022010BD81681A
:101B4000B1F5805F11D00169002901681FD0496893
:101B500001F07F03816A4A1C82620B70C18D491EAD
:101B60000904090CC18518D02BE00269816A002A9A
:101B70000268526805D0D2B20A80816A491C81622B
:101B8000ECE7C2F308020A80816A891CF7E74A6819
:101B9000816A4B1C83620A70E0E70168CA6822F020
:101BA0002002CA600168CA6822F48072CA600168B3
:101BB0004A6922F001024A61202180F83A10FFF7B9
:101BC00019FD002010BD00002DE9F0410446006819
:101BD0000169E26821F44051114301612169A06863
:101BE000E26908436169114322680843D16849F2F8
:101BF0000C6399430143D16020684169A26921F4D3
:101C0000407111434161E2696425B2F5004F974884
:101C1000974922684FF032083FD08A4201D0824271
:101C20007CD1FFF74FF800EBC00101EB00106168B9
:101C30008900B0FBF1F6FFF745F800EBC00101EBBE
:101C4000001061688900B0FBF1F0B0FBF5F06FF0B7
:101C50001801484306EB800108EB0110B0FBF5F0DA
:101C600000F0F006FFF72EF800EBC00101EB0010CA
:101C700061688900B0FBF1F0B0FBF5F006EB0016EF
:101C8000FFF720F800EBC00101EB0010616889004C
:101C9000B0FBF1F7FFF716F8D2E08A4201D082429A
:101CA0003DD1FFF70FF800EBC00101EB00106168B8
:101CB0004900B0FBF1F0B0FBF5F00601FFF702F8C8
:101CC00000EBC00101EB001061684900B0FBF1F7C7
:101CD000FEF7F8FF00EBC00101EB0010616849005E
:101CE000B0FBF1F0B0FBF5F06FF01801484307EBE3
:101CF000800108EBC100B0FBF5F000F0F80006EB46
:101D00004006FEF7DFFF00EBC00101EB0010616849
:101D10004900B0FBF1F7FEF7D5FF3CE055E0FEF7D8
:101D2000C1FF00EBC00101EB001061684900B0FB8E
:101D3000F1F0B0FBF5F00601FEF7B4FF00EBC001D7
:101D400001EB001061684900B0FBF1F7FEF7AAFF54
:101D500000EBC00101EB001061684900B0FBF1F03D
:101D6000B0FBF5F06FF01801484307EB800108EB7A
:101D7000C100B0FBF5F000F0F80006EB4006FEF7FE
:101D800091FF00EBC00101EB001061684900B0FB5E
:101D9000F1F7FEF787FF00EBC00101EB001061686F
:101DA0004900B0FBF1F0B0FBF5F06FF018014843CB
:101DB00007EB800108EBC100B0FBF5F000F0070075
:101DC000216830448860BDE8F081FEF76BFF00EBCE
:101DD000C00101EB001061688900B0FBF1F6FEF76D
:101DE00061FF00EBC00101EB001061688900B0FBEE
:101DF000F1F0B0FBF5F06FF01801484306EB8001FD
:101E000008EB0110B0FBF5F000F0F006FEF74AFF1A
:101E100000EBC00101EB001061688900B0FBF1F03C
:101E2000B0FBF5F006EB0016FEF73CFF00EBC0013F
:101E300001EB001061688900B0FBF1F7FEF732FF9B
:101E400000EBC00101EB001061688900B0FBF1F00C
:101E5000B0FBF5F06FF01801484307EB800108EB89
:101E60000110B0FBF5F000F00F00A9E700140140ED
:101E70000010014090F83910212901D0022070474C
:101E80008168B1F5805F016A0BD04A1C026202686A
:101E900009785160C18C491E0904090CC1840ED017
:101EA00017E009880268C1F308015160016900293F
:101EB000016A02D0491C0162ECE7891CFBE701685A
:101EC000CA6822F08002CA600068C16841F040011F
:101ED000C160002070472DE9F041984617460E4634
:101EE0000446069D1DE0681C1BD02DB1FEF76AFD5F
:101EF000A0EB0800A84214D92068C16821F4D07171
:101F0000C1602068416921F001014161202084F80D
:101F1000390084F83A00002084F838000320BDE836
:101F2000F0812068006836EA000004D00020B84242
:101F3000D9D00020F3E70120F9E700000148FFF7BE
:101F400063BA0000A000002010B52DED068B86B00E
:101F50000446B0EE409A14216846FEF787F9FDEE7C
:101F6000C98A9FED29ABB5EEC09AB0EEC98A18EECA
:101F7000900AF1EE10FA1ED219EE101A11F1814FEB
:101F800019D2002800DA4042FEF79BFA41EC190B07
:101F900018EE100AFEF7BFFA53EC192BFEF719FAE8
:101FA00053EC1A2BFEF71BFAFEF79CFA034618EEC9
:101FB000902A17A118E0002800DA4042FEF781FAC3
:101FC00041EC190B18EE100AFEF7A5FA53EC192B89
:101FD000FEF7FFF953EC1A2BFEF701FAFEF782FA2F
:101FE00018EE902A03460DA1684600F039F86846BD
:101FF000FEF747F9C2B20A2369462046FFF7FBFA0B
:1020000006B0BDEC068B10BD000000000088C34088
:102010002D25642E253034642000000025642E25F3
:102020003034642000000000FEE7000070B50A4D67
:1020300020212846FEF7BCFC0028F9D0074C0126D9
:10204000E67020212846FEF7B3FC0128F9D00020D5
:10205000E070A67070BD0000000802400000002083
:102060000FB4084B10B504A902AA039800F02CF88D
:10207000044602A9002000F0C8F9204610BC5DF813
:1020800014FB00000B2400080907090E002804DBDC
:1020900000F1E02080F80014704700F00F0000F11C
:1020A000E02080F8141D704702E008C8121F08C124
:1020B000002AFAD170477047002001E001C1121FC9
:1020C000002AFBD1704700002DE9FF4F8BB08846F6
:1020D0000546002606E025280BD0DDE90D129047C5
:1020E0006D1C761C28780028F5D10FB03046BDE86D
:1020F000F08F0024A146A2460122AE4900E004432D
:1021000015F8013F203B02FA03F00842F7D1287886
:102110002A2810D06FF02F022878A0F13001092969
:1021200015D809EB890102EB410144F0020400EBF0
:1021300001096D1CF0E758F8041B5FEA010903D59B
:1021400044F40054C9F1000944F002046D1C2878DD
:102150002E2817D115F8010F44F004042A280ED0B8
:102160006FF02F022878A0F1300109290AD80AEB74
:102170008A0102EB410100EB010A6D1CF2E758F8FD
:1021800004AB6D1C28786C280FD006DC4C2817D0C7
:1021900068280DD06A2814D104E0742810D07A2859
:1021A0000FD10DE044F400140AE044F4801401E07F
:1021B00044F440146978814202D104F580146D1C06
:1021C0006D1C2878692865D006DC00288DD063282E
:1021D00027D0642806D15DE06E2808D073282AD065
:1021E000752877D0DDE90D129047761CE0E0C4F346
:1021F0000250022809D003280DD0D8F80010042876
:102200000DD00E6008F10408D2E0D8F80010F217E3
:10221000C1E90062F6E7D8F800100E80F2E70E7010
:10222000F0E718F8041B8DF8001000208DF801006D
:10223000EB46012003E058F804BB4FF0FF30610784
:102240004FF0000701D40AE07F1C57450DDA8742A2
:10225000FADB1BF807100029F6D106E07F1C874245
:10226000FCDB1BF807100029F8D1DDE90D23A9EBF1
:1022700007008146214600F0B1F83044C61904E059
:10228000DDE90D121BF8010B90477F1EF8D22146A5
:10229000484688E058F8040BC4F302514FF00A0B8B
:1022A000032900D100B2042900D140B2002802DA8B
:1022B00040422D2102E0210505D52B218DF8241067
:1022C000012104E006E0E10710D02021F6E708AF85
:1022D000089113E058F8040BC4F302514FF00A0BB5
:1022E000032900D180B2042900D1C0B20021EEE759
:1022F0005946FEF723F9303107F8011D0028F7D1C0
:10230000ADEB070000F1200B600702D524F4803408
:1023100001E04FF0010ADA4502DDAAEB0B0000E014
:102320000020824600EB0B0108980144A9EB010054
:102330000A90E00306D4DDE90D2321460A9800F057
:102340004DF806444FF0000908E009A911F809000A
:10235000DDE90D12904709F10109761C08998945BC
:10236000F3DBE0030CD5DDE90D2321460A9800F0EC
:1023700035F8064404E0DDE90D1230209047761C64
:10238000BAF10001AAF1010AF5DC05E0DDE90D1260
:1023900017F8010B9047761CBBF10001ABF1010B64
:1023A000F4DC0A982146DDE90D2300F005F8064427
:1023B0006D1C97E6092801002DE9F041044600252F
:1023C0001E461746880404D405E039462020B0474D
:1023D0006D1C641EF9D52846BDE8F0812DE9F04159
:1023E000044600251E469046C80301D5302700E06C
:1023F0002027880404D505E041463846B0476D1CC7
:10240000641EF9D52846BDE8F0810A68531C0B60AC
:1024100010707047FEF7E4FAFFF720FAFFF74AF969
:10242000FFF792F9FFF7C4F9FFF7F6F91A480068C9
:10243000C16841F02001C16018490868026842F093
:10244000010202600868C16841F00101C1601448DE
:1024500001680A6842F001020A600068C16841F040
:102460000101C1600520FEF7BFF900240D4D0E4E9D
:10247000FEF790F90028FBD0FFF722FBFFF7D6FD0F
:10248000A8780028F4D0FEF711F9FEF749F9348056
:10249000AC702C70ECE70000A000002020000020B1
:1024A00060000020000000200E000020000000005E
:1024B00000000000010203040607080900000000F4
:1024C00001020304E42400080000002020000000B2
:1024D000A82000080425000820000020C0040000F7
:1024E000B82000080000000000000000000000000C
:1024F00000000000010000001000000000000000CB
:042500000024F400BF
:04000005080001C529
:00000001FF
