:020000040800F2
:10000000C0040020D9010008D91700085B150008BA
:1000100051170008E50200081B1A00080000000044
:10002000000000000000000000000000DD170008D4
:100030004903000800000000DB170008DF17000874
:10004000F3010008F3010008F3010008F3010008C0
:10005000F3010008F3010008F3010008F3010008B0
:10006000F3010008F3010008F3010008F3010008A0
:10007000F3010008F3010008F3010008F301000890
:10008000F3010008F3010008F3010008F301000880
:10009000E9020008F3010008F3010008F301000879
:1000A000F3010008F3010008F3010008F301000860
:1000B000C1180008F3010008DD180008F30100086A
:1000C000F3010008F3010008F3010008F301000840
:1000D000F3010008F3010008F3010008F301000830
:1000E000F3010008F3010008F3010008F301000820
:1000F000F3010008F3010008F3010008F301000810
:10010000F3010008F3010008F3010008F3010008FF
:10011000F3010008F3010008F3010008F3010008EF
:10012000F3010008F3010008F3010008F3010008DF
:10013000F30100080000000000000000F3010008C7
:10014000F3010008F3010008F3010008F3010008BF
:10015000F3010008F3010008F3010008F3010008AF
:10016000F3010008F3010008F3010008F30100089F
:10017000F3010008F3010008F3010008000000008B
:1001800000000000F3010008000000000000000073
:10019000F30100080000000000000000F301000867
:1001A000000000000000000000000000F301000853
:1001B000F3010008F3010008F3010008F30100084F
:1001C000F3010008DFF80CD000F07AF8004800478F
:1001D0005D1A0008C0040020064880470648004712
:1001E000FEE7FEE7FEE7FEE7FEE7FEE7FEE7FEE7E7
:1001F000FEE7FEE76D180008C50100082DE9F05F75
:100200000546002092469B46884606468146402485
:100210001BE0284641464746224600F041F8534637
:100220005A46C01A914110D311461846224600F092
:1002300028F82D1A67EB01084F46224601200021BD
:1002400000F01FF817EB00094E41201EA4F1010435
:10025000DFDC484631462A464346BDE8F09FD2B22D
:1002600001E000F8012B491EFBD270470022F6E79F
:1002700010B513460A4604461946FFF7F0FF20461C
:1002800010BD202A04DB203A00FA02F1002070475A
:100290009140C2F1200320FA03F3194390407047C4
:1002A000202A04DB203A21FA02F00021704721FACB
:1002B00002F3D040C2F12002914008431946704732
:1002C000064C074D06E0E06840F0010394E80700A3
:1002D00098471034AC42F6D3FFF778FF1C1B000898
:1002E0003C1B0008FEE7000000B587B0094800F09D
:1002F00046F9022000900120019000200290039016
:1003000004200490044B6A460021024800F0C3F820
:1003100007B000BD180000200100002000B58BB020
:1003200000200121CDE90601039005900090019085
:100330000290089104906946024800F025F80BB03D
:1003400000BD000018000020704770470448017885
:100350000A2903D300210170012070470020704753
:100360000000002090F82020012A07D0022A05D0A2
:10037000416A41F48021416201207047006842696E
:100380000A4342610020704710B590F82020012AEE
:1003900007D0022A05D0416A41F480214162012040
:1003A00010BD3B48D0F8002242F00102C0F8002204
:1003B000D0F8002222F47C52C0F80022D0F80022AB
:1003C0004B6A42EA0322C0F800220A7D02F01F03B2
:1003D00001229A40D0F81C329343C0F81C32CB69FA
:1003E000B3B9D0F80C329343C0F80C328C894B6807
:1003F00064F31F434C6900EBC404C4F840320C8919
:100400000B6864F31F434C6900EBC404C4F8443226
:10041000CB69012B16D1D0F80C321343C0F80C3243
:100420000C884B6864F31F434C6900EBC404C4F8A8
:1004300040320C89CB6864F31F434C6900EBC40461
:10044000C4F844328B69002BD0F804320ED0134329
:10045000C0F804320B69002BD0F8143208D01343D3
:10046000C0F81432096A012904D008E09343EFE789
:100470009343F5E7D0F81C121143C0F81C12D0F8D2
:10048000001221F00101C0F80012002010BD000090
:1004900000640040704730B590F82040012C05D032
:1004A000022C03D0416A41F480215DE004680029F8
:1004B00055D02469A40754D04FF4D874056804EBD0
:1004C00001142D5915F00405956005682D594ED07D
:1004D000ED08556005682C59C4F34004D4604FF40E
:1004E000DA74056804EB01142D5905F00F05156148
:1004F00005682D59C5F30725956105682C59240C0D
:1005000054614FF4DC72046802EB0112A4581C70B1
:100510000468A458240A5C700468A458240C9C70D5
:100520000468A258120EDA704FF4DE72046802EB0F
:100530000112A4581C710468A458240A5C71046850
:10054000A458240C9C710468A258120EDA71006839
:1005500081B1016941F020010161002030BDE468F2
:10056000A8E7416A41F400114162012030BD6D0DE0
:100570001560AFE7C16841F02001C160EDE72DE9EA
:10058000F05F0546006800244669D0F8049087684B
:10059000D0F80CB0D0F810A0D0F81880F10748D0EF
:1005A000F90714D001218160B80703D5284600F06F
:1005B000E2F90CE0780702D54FF4006407E0380751
:1005C00002D54FF4805402E0284600F0D3F9F80534
:1005D00016D529684FF480708860B80503D5284681
:1005E00000F0CBF90CE0780502D544F4005407E0A4
:1005F000380502D544F4804402E0284600F0BCF9F6
:10060000F80316D529684FF480308860B80303D505
:10061000284600F0B4F90CE0780302D544F4004415
:1006200007E0380302D544F4803402E0284600F0A5
:10063000A5F9300707D55FEACB6004D529681020FB
:1006400044F40074C86070074FF0080707D55FEAEC
:100650000B7004D52868C760284600F059F9B00728
:1006600006D52868C068800702D0284600F051F9F6
:10067000700607D55FEACA6004D52968102044F4E3
:1006800080640861B00607D55FEA0A7004D528685F
:100690000761284600F03EF9F00606D52868006993
:1006A000800702D0284600F036F9B00308D55FEA8B
:1006B000C96005D5296810204860284600F02CF94B
:1006C000F00307D55FEA097004D52868476028461B
:1006D00000F056F9300446D55FEA497040D5F00580
:1006E00004D55FEAC87001D044F00104B00504D518
:1006F0005FEA887001D544F00204700504D55FEA12
:10070000487001D544F00404300529D518F0700F65
:1007100026D008F07000402815D006DC102809D03B
:1007200020280AD0302816D10AE050280ED06028A0
:1007300011D10EE044F008040DE044F010040AE08A
:1007400044F0200407E044F0400404E044F0800456
:1007500001E044F480742868816921F070018161AE
:10076000296804204860002C05D0686A204368622C
:100770002846FFF78FFEBDE8F09F70B5040003D058
:1007800094F8200010B104E0012070BD204600F074
:1007900081F82068016821F00201016000F0DCF9B5
:1007A0000546052604E000F0D7F9401B0A2811D8B9
:1007B000206840688007F6D42068016841F0010194
:1007C000016000F0C9F905460BE000F0C5F9401BD7
:1007D0000A2806D9606A40F40030606284F820601C
:1007E000D2E720684068C007EFD0207E012820684B
:1007F00001683DD021F080010160607E0128206801
:10080000016838D021F040010160A07E01282068F5
:10081000016833D021F020010160E07E01282068CA
:1008200001682ED041F010010160207F012820686E
:10083000016829D021F008010160607F012820684B
:10084000016824D021F004010160D4E902010843C9
:10085000D4E90412114308436168491E0843216822
:10086000C86100206062012084F82000002070BD73
:1008700041F08001C0E741F04001C5E741F02001AF
:10088000CAE721F01001CFE741F00801D4E741F0B9
:100890000401D9E710B586B0044614216846FFF775
:1008A000E5FC18492068884229D1174800210268D0
:1008B00042F000720260006800F00070059012487B
:1008C0001038026842F001020260006800F0010086
:1008D00005904FF4C05000900220CDE901010320A3
:1008E0000390092004906946084800F05DF8002252
:1008F0001146142000F09EF9142000F08DF906B086
:1009000010BD00000064004040380240000002407A
:1009100070477047704770477047000070B50446D5
:1009200090F82000012804D0606A40F40020606242
:1009300018E0022084F820002068016821F00101FD
:10094000016000F009F905460EE000BF00F004F96F
:10095000401B0A2808D9606A40F400306062052014
:1009600084F82000012070BD20684068C007EDD1E8
:10097000606270BD7047704770477047704770473E
:100980007047000070B5044600F0E6F80546601CAC
:1009900002D004480078044400F0DEF8401BA04276
:1009A000FAD370BD080000202DE9F84FDFF874B1CC
:1009B00000224FF001084FF0030A4FF00F090BF12E
:1009C000040E00BF0B6808FA02F42340A3426ED164
:1009D0004D68022D01D0122D0ED1D50800EB850CEB
:1009E000DCF820505607F70E09FA07F6B5430E69F2
:1009F000BE402E43CCF82060066855000F790AFAF5
:100A000005FC07F0030726EA0C06AF4037430760F2
:100A10004E68012E05D0022E03D0112E01D0122EC9
:100A20000ED18668CF6826EA0C06AF403743876050
:100A30004668A6430C79C4F30014944034434460E0
:100A4000C4688E6824EA0C04AE402643C6604C6835
:100A5000E40060D5344C256845F480452560246861
:100A600022F0030504F480440094304C2E19D6F88B
:100A7000084895072F0F09FA07F5AC432C4DA842FB
:100A800001D100251FE02B4DA84201D101251AE01C
:100A9000294DA84201D1022515E0284DA84201D1D7
:100AA000032510E0264DA84202D104250BE032E0D8
:100AB000244DA84201D1052505E0234DA84201D1CE
:100AC000062500E00725BD402543C6F80858DBF899
:100AD00000405D464E689C43F60300D51C432C60E5
:100AE000DEF8004075464E689C43B60300D51C43B3
:100AF0002C600C4D08352C684E689C43F60200D5DE
:100B00001C432C60074D0C352C684E689C43B60284
:100B100000D51C432C60521C102AFFF453AFBDE8D3
:100B2000F88F0000003C0140443802400030014092
:100B3000000002400004024000080240000C024095
:100B40000010024000140240001802400AB1816106
:100B500070470904FBE70000014880687047000007
:100B600008000020024881680278114481607047C3
:100B7000080000200B4810B5016841F400710160C5
:100B8000016841F480610160016841F48071016095
:100B9000032000F06FF8002000F006F800F024F8C1
:100BA000002010BD003C024070B50D4D04464FF4CE
:100BB0007A712878B1FBF0F00A490968B1FBF0F0CE
:100BC00000F026FB48B9102C07D200222146501E07
:100BD00000F030F800206C6070BD012070BD000096
:100BE00008000020140000200A4808B5016841F4FC
:100BF00080410160006800F4804000900548001FBB
:100C0000016841F080510160006800F08050009060
:100C100008BD000044380240002809DB00F01F0234
:100C2000012191404009800000F1E020C0F800114E
:100C300070470000F0B40E4B1B680C46C3F3022350
:100C4000C3F10705042D00D90425191D072901D278
:100C5000002300E0DB1E012606FA05F1491E2140B3
:100C600099409E40761E16403143F0BC00F0D6BE3F
:100C70000CED00E0064900F0070208684FF6FF039C
:100C8000184040EA0220034A104308607047000001
:100C90000CED00E00000FA052DE9F8431748016863
:100CA00041F0805101600068154F00F0805001262E
:100CB00000903E64FFF750FF05464FF47A78114CE0
:100CC00005E000BFFFF748FF401B40450DD86068B6
:100CD000C003F7D57E64FFF73FFF0546464607E0B1
:100CE000FFF73AFF401BB04202D90320BDE8F8836A
:100CF00060688003F4D50020F8E700004038024027
:100D000000000E42007000402DE9F0470E4605003D
:100D100065D0DFF81481D8F80000F7B200F00F00BA
:100D2000B04207D288F80070D8F8000000F00F0039
:100D3000B04254D128683D4C810712D5400703D5F5
:100D4000206840F4E05020602878000703D5206830
:100D500040F4604020602068A96820F0F00008435B
:100D600020602878C0072DD03049686808390128EC
:100D700012D0022813D0032811D00968890700294E
:100D80002DDA216821F0030101432160FFF7E4FE21
:100D9000814641F2883A0EE009688903EFE7096865
:100DA0008901ECE7FFF7D8FEA0EB0901514502D914
:100DB0000320BDE8F0872068696800F00C00B0EB04
:100DC000810FEFD1D8F80010404601F00F01B14279
:100DD00007D90770006800F00F00B04201D0012071
:100DE000E7E72878400705D52068E96820F4E05057
:100DF000084320602878000706D52068296920F478
:100E0000604040EAC100206000F016F82168084AFE
:100E1000C1F30311515CC840064908600020FFF788
:100E2000C3FE0020C5E70000003C02400838024035
:100E30000C1B000814000020224810B5006810F0B8
:100E40000C02214815D04110042A11D01D4C241F3A
:100E5000082A0FD00C2A0CD12268236802F03F0226
:100E60005B0221D52068C0F38810A0FB010120E0BF
:100E7000084610BD2268236802F03F025B0205D5D8
:100E80002068C0F38810A0FB010104E02168C1F3D1
:100E90008811A1FB00010023FFF7B0F92168C1F31D
:100EA0000141491C49000AE02168C1F38811A1FBF6
:100EB00000010023FFF7A2F92168C1F30271B0FB22
:100EC000F1F010BD083802400024F4002DE9F84F7D
:100ED0000546DFF828B30078ABF10407C007A7F197
:100EE000040451D0DBF800105846C1F381010129F8
:100EF0000FD00168C1F38101022902D1396849028A
:100F000007D40068C0F38100032809D13868400283
:100F100006D52068800337D56868002872D033E092
:100F20006868B0F5803F10D0B0F5A02F206810D0D1
:100F300020F480302060206820F4802020606868E1
:100F4000A8B1FFF709FE06460DE0206840F48030A6
:100F5000F4E740F480202060F7E700BFFFF7FCFDD6
:100F6000801B642878D820688003F7D50CE0FFF751
:100F7000F3FD064605E000BFFFF7EEFD801B642889
:100F8000F0D820688003F7D42878DFF874928007BF
:100F90004FF0000A46D5DBF80010584611F00C0F50
:100FA0000FD00168C1F38101022902D139684902D9
:100FB00007D50068C0F38100032809D138684002D2
:100FC00006D42068800715D5E86801281AD111E0F9
:100FD000E868C0B10120C9F80000FFF7BDFD064672
:100FE00005E000BFFFF7B8FD801B0228BAD82068D3
:100FF0008007F7D52068296920F0F80040EAC10091
:1010000020600FE0F7E0C9F800A0FFF7A5FD064655
:1010100005E000BFFFF7A0FD801B02281CD8206858
:101020008007F7D42878000727D5DFF8D0817548E6
:10103000696908F16C0881B101210160FFF78CFD3D
:10104000064604E0FFF788FD801B022804D8D8F884
:1010500000008007F6D510E089E0C0F800A0FFF797
:101060007BFD064605E000BFFFF776FD801B0228EA
:101070007DD8D8F800008007F6D42878400769D5D5
:101080005E484FF0000838300068C0000BD45B4861
:101090003830016841F08051016000684FF001086C
:1010A00000F080500090584E3068C00511D4306870
:1010B00040F480703060FFF74FFD009006E000BF05
:1010C000FFF74AFD0099401A022850D83068C00541
:1010D000F6D54A4EA868683601280FD00528306832
:1010E00010D020F001003060306820F00400306043
:1010F000A868B8B1FFF730FD00900FE0306840F00D
:101100000100F4E740F004003060F7E7FFF724FD4A
:101110000099411A41F28830814264D830688007D2
:10112000F4D50EE0FFF718FD009007E0FFF714FD7F
:101130000099411A41F28830814254D830688007C2
:10114000F4D4B8F1000F05D02C483830016821F0F4
:1011500080510160A869A8B3DBF80010C1F38101D8
:10116000022948D00228C9F860A005D000E03AE082
:10117000FFF7F2FC054639E0FFF7EEFC064604E017
:10118000FFF7EAFC801B02282DD820688001F7D4E5
:10119000F5E907010843E9681C4A490802EB0141E7
:1011A000AA6841EA82110843297C40EA0160297D4E
:1011B00040EA017038600120C9F86000FFF7CCFCFC
:1011C000054606E015E000BFFFF7C6FC401B0228FD
:1011D00009D820688001F7D50BE000BFFFF7BCFC01
:1011E000401B022802D90320BDE8F88F2068800147
:1011F000F4D40020F8E70120F6E7000008380240A8
:1012000000004742800E4742007000400000FFFF90
:1012100010B5401EB0F1807F01D3012010BD4FF00A
:10122000E02460610F21601700F0F8FB0020A0614E
:1012300007202061002010BD7047704770B590F8FE
:101240003C20012A19D0012400F83C4F02224270B0
:1012500050F83C3C5A689D6822F070060A6849685C
:10126000324325F0800529435A6050F83C2C9160A8
:10127000447000210170084670BD022070BD10B599
:10128000040003D094F83D0010B107E0012010BD28
:10129000002084F83C00204600F00CF8022084F87E
:1012A0003D00211D206800F01FFB012084F83D0057
:1012B000002010BD08B501681448B1F1804F14D06A
:1012C000134A914220D1016841F004010160006895
:1012D000002200F00400009011461E20FFF7AAFC37
:1012E0001E20BDE80840FFF797BC016841F00101EE
:1012F00001600068002200F00100009011461C20EF
:10130000FFF798FC1C20ECE708BD000040380240C5
:101310000008004070B5044690F83C00012817D042
:10132000012584F83C50022084F83D002068826842
:1013300022F0770222F47F4282600868502830D081
:101340000DDC20284DD005DC98B310283BD148E0B7
:10135000022070BD302844D0402834D139E06028C4
:1013600028D0702806D0B0F5805F2CD0B0F5005F93
:1013700029D10AE0CB68D1E90121206800F018FBEF
:101380002068816841F0770109E0CB68D1E901214B
:10139000206800F00DFB2068816841F48041816085
:1013A00011E0CA684968206800F014FB50212068E9
:1013B00007E016E0CA684968206800F01CFB60215D
:1013C000206800F0FFFA84F83D50002084F83C00CB
:1013D00070BDCA684968206800F0FCFA40212068A6
:1013E000EFE7226801461046EBE7704770B5044608
:1013F000006801694FF00005C943890715D4C16829
:10140000C943890711D4E91E0161012020772068B2
:1014100080698007204602D0FFF7E7FF04E000F074
:1014200098F8204600F096F8257720680169C943AE
:10143000490717D4C168C943490713D46FF00401A1
:101440000161022020772068806910F4407F2046E7
:1014500002D0FFF7CAFF04E000F07BF8204600F05E
:1014600079F8257720680169C943090716D4C1684E
:10147000C943090712D46FF00801016104202077E5
:101480002068C0698007204602D0FFF7AEFF04E065
:1014900000F05FF8204600F05DF8257720680169CC
:1014A000C943C90617D4C168C943C90613D46FF02C
:1014B00010010161082020772068C06910F4407F86
:1014C000204602D0FFF791FF04E000F042F82046EA
:1014D00000F040F8257720680169C943C90708D1A1
:1014E000C168C943C90704D1891E0161204600F0C3
:1014F00032F820680169C943090609D4C168C943A3
:10150000090605D46FF0800101612046FFF794FEC3
:1015100020680169C943490609D4C168C94349061D
:1015200005D46FF040010161204600F015F82068F5
:101530000169C94389060BD4C168C943890607D428
:101540006FF0200101612046BDE87040FFF775BED5
:1015500070BD7047704770477047FEE70F4810B581
:101560000D4901600521416000214FF41022816086
:10157000C0E903124FF4C0024261017641768176E0
:10158000C17601774177FFF7F8F8002803D0BDE86E
:101590001040FEF7DABE10BD0064004018000020C5
:1015A0002DE9F04786B014216846FEF75FFE30480B
:1015B0000024016841F080010160016801F08001B0
:1015C0000591016841F001010160016801F001012C
:1015D0000591016841F004010160016801F0040116
:1015E0000591016841F0020101600068DFF8848024
:1015F00000F00200059000220C214046FFF7A6FAF9
:10160000DFF874904FF48066002231464846FFF7B9
:101610009DFADFF868A04FF4406700223946504633
:10162000FFF794FA0C2000900125CDE9015469469A
:1016300040460394FFF7B8F92020CDE9000469463D
:1016400050460294FFF7B0F90096CDE9015469467F
:1016500048460394FFF7A8F90097CDE9015469467D
:1016600050460394FFF7A0F906B0BDE8F0870000EC
:1016700030380240000002400004024000080240EE
:1016800010B586B000241748009401940294039486
:1016900004944FF08041059401605921C0E9011480
:1016A00040F2E731C0E9031480218161FFF7E7FDD3
:1016B00008B1FEF74AFE4FF4805000906946094891
:1016C000FFF728FE08B1FEF740FE049404A9054880
:1016D0000594FFF7B3FD002801D0FEF736FE06B0F3
:1016E00010BD00004000002010B586B0002417484F
:1016F00000940194029403940494134905940160A6
:101700005921C0E901140921C0E903148021816134
:10171000FFF7B5FD08B1FEF718FE4FF480500090BA
:1017200069460A48FFF7F6FD08B1FEF70EFE04947D
:1017300004A906480594FFF781FD002801D0FEF7B3
:1017400004FE06B010BD000000080040800000202C
:10175000FEE7000010B5064C012204212046FFF7E9
:10176000F5F920460022BDE810400821FFF7EEB948
:101770000000024010B5064C002204212046FFF76D
:10178000E5F920460022BDE810400821FFF7DEB948
:101790000000024010B5064C012291022046FFF7DE
:1017A000D5F90022E1142046BDE81040FFF7CEB97C
:1017B0000008024010B5074C00224FF4806120461B
:1017C000FFF7C4F90022E1142046BDE81040FFF7FE
:1017D000BDB9000000080240704770477047FFF72E
:1017E000C1B9000030B593B034216846FEF73EFD24
:1017F00014210DA8FEF73AFD1A480025016841F0B2
:1018000080510160006800F0805012901648016815
:1018100041F4404101600068022400F4404012900D
:1018200001200090000401908001CDE906400420D1
:101830000890B420CDE909040B9468460C94FFF796
:1018400045FBFFF729FA0DA90F2081E831004FF47D
:10185000A0501090E002119005210DA8FFF754FA56
:1018600013B030BD4038024000700040104801689D
:1018700041F4700101600F48016841F0010101600D
:101880000C4A00210832116002680B4B1A400260BA
:10189000031D0A4A1A60026822F480220260054889
:1018A0000C3001600249580680390860704700001A
:1018B00088ED00E000380240FFFFF6FE1030002403
:1018C00010B50448FFF792FD03480178491C0170E8
:1018D00010BD000040000020000000200148FFF77C
:1018E00085BD000080000020F0B50268254C264D23
:1018F000264E274F274B4FF0804CA04209D0604521
:1019000007D0A84205D0B04203D0B84201D09842D7
:1019100004D122F0700E4A6842EA0E02A0421BD0A7
:10192000604519D0A84217D0B04215D0B84213D0A4
:10193000984211D0184DA8420ED0184DA8420BD095
:10194000174DA84208D0174DA84205D0164DA84201
:1019500002D0164DA84203D122F44075CA682A432A
:101960004D6922F080022A4302608A68C2620A68D6
:101970008262A04201D0984201D10969016301212C
:101980004161F0BD0000014000040040000800403B
:10199000000C0040000401400040014000440140B0
:1019A0000048014000180040001C0040002000409A
:1019B00010B5846842EA032224F47F440A43224398
:1019C000826010BD826822F070020A4342F0070173
:1019D0008160704710B5036A046A24F00104046250
:1019E000846924F0F00444EA021423F00A020A4352
:1019F0008461026210BD10B5036A23F01003036214
:101A00008369046A23F4704343EA023224F0A0039A
:101A100043EA01118261016210BDFEE70907090E68
:101A2000002804DB00F1E02080F80014704700F08B
:101A30000F0000F1E02080F8141D704702E008C894
:101A4000121F08C1002AFAD170477047002001E038
:101A500001C1121F002AFBD170470000FFF78AF86E
:101A6000FFF7C0FEFFF79CFDFFF70AFEFFF73CFE05
:101A7000FFF774FD21490868026842F00102026024
:101A80000868C16841F00101C1601D4801680A6829
:101A900042F001020A600068C16841F00101C160C2
:101AA000FEF73CFC1748FEF739FF02211548FEF708
:101AB00059FC4FF400611348FEF754FC4FF4806169
:101AC0001048FEF74FFC4FF400410E48FEF74AFC69
:101AD0000520FEF757FF0C4CFEF738FC0028FBD022
:101AE000A078E178884204D1FFF734FEFFF752FE78
:101AF000F2E7FFF73FFEFFF75DFEEDE74000002055
:101B000080000020180000200100002000000000DC
:101B10000000000001020304060708093C1B00083E
:101B200000000020180000003C1A0008541B0008A8
:101B300018000020A80400004C1A00080000000053
:101B40000000000001000000100000000000000084
:041B50000024F40079
:04000005080001C529
:00000001FF
